{
  "contractName": "GamesManager",
  "abi": [
    {
      "anonymous": false,
      "inputs": [
        {
          "indexed": true,
          "internalType": "address",
          "name": "owner",
          "type": "address"
        },
        {
          "indexed": false,
          "internalType": "contract Game",
          "name": "_game",
          "type": "address"
        }
      ],
      "name": "GameCreated",
      "type": "event"
    },
    {
      "anonymous": false,
      "inputs": [
        {
          "indexed": true,
          "internalType": "address",
          "name": "player",
          "type": "address"
        },
        {
          "indexed": false,
          "internalType": "contract Game",
          "name": "_game",
          "type": "address"
        }
      ],
      "name": "JoinedGame",
      "type": "event"
    },
    {
      "anonymous": false,
      "inputs": [
        {
          "indexed": true,
          "internalType": "address",
          "name": "player",
          "type": "address"
        }
      ],
      "name": "NoGameAvailable",
      "type": "event"
    },
    {
      "anonymous": false,
      "inputs": [
        {
          "indexed": true,
          "internalType": "address",
          "name": "player",
          "type": "address"
        }
      ],
      "name": "NoValidGame",
      "type": "event"
    },
    {
      "inputs": [],
      "name": "CreateGame",
      "outputs": [],
      "stateMutability": "nonpayable",
      "type": "function"
    },
    {
      "inputs": [
        {
          "internalType": "contract Game",
          "name": "_ID",
          "type": "address"
        }
      ],
      "name": "JoinGameID",
      "outputs": [],
      "stateMutability": "nonpayable",
      "type": "function"
    },
    {
      "inputs": [],
      "name": "JoinGameRandom",
      "outputs": [],
      "stateMutability": "nonpayable",
      "type": "function"
    }
  ],
  "bytecode": "0x608060405234801561001057600080fd5b50612fa8806100206000396000f3fe608060405234801561001057600080fd5b50600436106100415760003560e01c80630d038926146100465780635cebd71f14610050578063a8c35c4114610063575b600080fd5b61004e61006b565b005b61004e61005e366004610718565b6102c2565b61004e610433565b600054600111156100a35760405133907fa05a113de88b92f77746f3a9c4a4b3e8ff73eb3cde6b3f780bb064ebd6fa1e5890600090a2565b600080546100b2600143610752565b60035460408051924060208401526bffffffffffffffffffffffff193360601b169083015260548201526074016040516020818303038152906040528051906020012060001c610102919061076b565b6003805491925060006101148361078d565b9091555060009050815b60005481101561028c57600080548190610138908461076b565b81548110610148576101486107a6565b6000918252602091829020015460408051638da5cb5b60e01b815290516001600160a01b03909216935033928492638da5cb5b9260048082019392918290030181865afa15801561019d573d6000803e3d6000fd5b505050506040513d601f19601f820116820180604052508101906101c191906107bc565b6001600160a01b031614610279576040516399d8a52d60e01b8152336004820152600193506001600160a01b038216906399d8a52d90602401600060405180830381600087803b15801561021457600080fd5b505af1158015610228573d6000803e3d6000fd5b50505050610235816104b5565b6040516001600160a01b038216815233907f67791e82b41e52aab85702b843b29383cb7a9c53c5c7690a6c25a406069b7fc79060200160405180910390a25061028c565b50806102848161078d565b91505061011e565b50806102be5760405133907fa05a113de88b92f77746f3a9c4a4b3e8ff73eb3cde6b3f780bb064ebd6fa1e5890600090a25b5050565b6001600160a01b03811660009081526002602052604090205460ff16158061035c5750336001600160a01b0316816001600160a01b0316638da5cb5b6040518163ffffffff1660e01b8152600401602060405180830381865afa15801561032d573d6000803e3d6000fd5b505050506040513d601f19601f8201168201806040525081019061035191906107bc565b6001600160a01b0316145b1561038f5760405133907f2a8047fb45b5f7d9c54dcc6334c9252c503de8df259688dd605e39a5fe6cb61c90600090a250565b6040516399d8a52d60e01b81523360048201526001600160a01b038216906399d8a52d90602401600060405180830381600087803b1580156103d057600080fd5b505af11580156103e4573d6000803e3d6000fd5b505050506103f1816104b5565b6040516001600160a01b038216815233907f67791e82b41e52aab85702b843b29383cb7a9c53c5c7690a6c25a406069b7fc7906020015b60405180910390a250565b600033604051610442906106f3565b6001600160a01b039091168152602001604051809103906000f08015801561046e573d6000803e3d6000fd5b50905061047a81610668565b6040516001600160a01b038216815233907fb60d84e37a6658effce28870b1d123cb86f86409df5888679310c0f276e1f5d290602001610428565b6001600160a01b03811660009081526002602052604090205460ff1615156001146104e2576104e26107d9565b6001600160a01b0381166000908152600260209081526040808320805460ff19169055600191829052822054915461051a9190610752565b81148061052957506000546001145b1561056657600080548061053f5761053f6107ef565b600082815260209020810160001990810180546001600160a01b031916905501905561064d565b6000805461057690600190610752565b81548110610586576105866107a6565b600091825260208220015481546001600160a01b039091169190839081106105b0576105b06107a6565b6000918252602082200180546001600160a01b0319166001600160a01b0393909316929092179091558054806105e8576105e86107ef565b6001900381819060005260206000200160006101000a8154906001600160a01b03021916905590558060016000808481548110610627576106276107a6565b60009182526020808320909101546001600160a01b031683528201929092526040019020555b506001600160a01b0316600090815260016020526040812055565b6001600160a01b0381166000818152600260205260408120805460ff19166001908117909155815480820183558280527f290decd9548b62a8d60345a988386fc84ba6bc95484008f6362f93160ef3e5630180546001600160a01b031916909317909255546106d79190610752565b6001600160a01b03909116600090815260016020526040902055565b61276d8061080683390190565b6001600160a01b038116811461071557600080fd5b50565b60006020828403121561072a57600080fd5b813561073581610700565b9392505050565b634e487b7160e01b600052601160045260246000fd5b818103818111156107655761076561073c565b92915050565b60008261078857634e487b7160e01b600052601260045260246000fd5b500690565b60006001820161079f5761079f61073c565b5060010190565b634e487b7160e01b600052603260045260246000fd5b6000602082840312156107ce57600080fd5b815161073581610700565b634e487b7160e01b600052600160045260246000fd5b634e487b7160e01b600052603160045260246000fdfe60806040523480156200001157600080fd5b506040516200276d3803806200276d83398101604081905262000034916200006f565b600080546001600160a01b03929092166001600160a01b0319928316811790915560018054909216179055600e805460ff19169055620000a1565b6000602082840312156200008257600080fd5b81516001600160a01b03811681146200009a57600080fd5b9392505050565b6126bc80620000b16000396000f3fe6080604052600436106101815760003560e01c80638008c52b116100d157806399d8a52d1161008a578063d30895e411610064578063d30895e4146104b6578063d985560f146104d6578063dfbf53ae14610506578063ebeb588d1461052657600080fd5b806399d8a52d14610479578063b6ac9b7514610499578063bfbe147c146104ae57600080fd5b80638008c52b146103ac5780638b299903146103cc5780638da5cb5b146103ec57806390316f731461040c57806392d449e41461042c57806396b59cd71461045957600080fd5b80633770cbe01161013e57806359a5f12d1161011857806359a5f12d1461031e5780636191c504146103565780636d2e43871461037657806370dea79a1461039657600080fd5b80633770cbe0146102ae578063558bd5a7146102dc57806357ea89b61461030957600080fd5b8063055ad42e146101865780630fb219b9146101b657806311610c25146101f6578063121b086c1461021a5780631f3c5e20146102555780632b4c6e6914610297575b600080fd5b34801561019257600080fd5b50600e546101a09060ff1681565b6040516101ad919061213d565b60405180910390f35b3480156101c257600080fd5b506101e66101d1366004612173565b60076020526000908152604090205460ff1681565b60405190151581526020016101ad565b34801561020257600080fd5b5061020c600c5481565b6040519081526020016101ad565b34801561022657600080fd5b506101e661023536600461219f565b600b60209081526000928352604080842090915290825290205460ff1681565b34801561026157600080fd5b50610285610270366004612173565b60096020526000908152604090205460ff1681565b60405160ff90911681526020016101ad565b3480156102a357600080fd5b506102ac610546565b005b3480156102ba57600080fd5b506102ce6102c93660046121d2565b61073c565b6040516101ad929190612210565b3480156102e857600080fd5b506102fc6102f7366004612173565b610777565b6040516101ad9190612227565b34801561031557600080fd5b506102ac610827565b34801561032a57600080fd5b5060025461033e906001600160a01b031681565b6040516001600160a01b0390911681526020016101ad565b34801561036257600080fd5b506102ac61037136600461242c565b61089d565b34801561038257600080fd5b506102ac6103913660046124fe565b610c2e565b3480156103a257600080fd5b5061020c600d5481565b3480156103b857600080fd5b506102ac6103c7366004612577565b610fe5565b3480156103d857600080fd5b5060045461033e906001600160a01b031681565b3480156103f857600080fd5b5060005461033e906001600160a01b031681565b34801561041857600080fd5b506102ac610427366004612592565b61108c565b34801561043857600080fd5b5061020c610447366004612173565b60066020526000908152604090205481565b34801561046557600080fd5b506102ac610474366004612592565b611137565b34801561048557600080fd5b506102ac610494366004612173565b6112bb565b3480156104a557600080fd5b506102ac611302565b6102ac611501565b3480156104c257600080fd5b5060015461033e906001600160a01b031681565b3480156104e257600080fd5b506101e66104f1366004612173565b60056020526000908152604090205460ff1681565b34801561051257600080fd5b5060035461033e906001600160a01b031681565b34801561053257600080fd5b506102ac610541366004612592565b6116e3565b6001546001600160a01b031633148061056957506002546001600160a01b031633145b61057257600080fd5b6001546000906001600160a01b03163314610598576001546001600160a01b03166105a5565b6002546001600160a01b03165b90506001600e5460ff1660058111156105c0576105c0612127565b1480156105e657506001600160a01b03811660009081526007602052604090205460ff16155b8061062857506002600e5460ff16600581111561060557610605612127565b14801561062857506001600160a01b038116600090815260086020526040902054155b8061066157506003600e5460ff16600581111561064757610647612127565b14801561066157506004546001600160a01b038281169116145b8061069a57506004600e5460ff16600581111561068057610680612127565b14801561069a57506003546001600160a01b038281169116145b6106a357600080fd5b6001600160a01b03811660009081526005602052604090205460ff16156106c957600080fd5b6040516001600160a01b03821681527f36dc9af3a7f8bc98ef51f91a917f0d239dc8e0058e4b49c6040c15970e3b6e7f9060200160405180910390a16001600160a01b0381166000908152600560208190526040909120805460ff191660011790556107369043906125c1565b600d5550565b600a602052816000526040600020818154811061075857600080fd5b60009182526020909120015460ff808216935061010090910416905082565b6001600160a01b0381166000908152600a60209081526040808320805482518185028101850190935280835260609492939192909184015b8282101561081c57600084815260209081902060408051808201909152908401805460ff808216845292939192918401916101009091041660028111156107f8576107f8612127565b600281111561080957610809612127565b81525050815260200190600101906107af565b505050509050919050565b6005600e5460ff16600581111561084057610840612127565b1461084a57600080fd5b6003546001600160a01b0316331461086157600080fd5b6003546040516001600160a01b03909116904780156108fc02916000818181858888f1935050505015801561089a573d6000803e3d6000fd5b50565b6001546001600160a01b03163314806108c057506002546001600160a01b031633145b6108c957600080fd5b3360009081526005602052604090205460ff16151560010361095157600d5443101561090b57336000908152600560205260409020805460ff19169055610951565b600d5443106109515760015461094c906001600160a01b0316331461093b576001546001600160a01b03166119b7565b6002546001600160a01b03166119b7565b610c27565b6004600e5460ff16600581111561096a5761096a612127565b1461097457600080fd5b825184511461098257600080fd5b835181511461099057600080fd5b6001546000906001600160a01b031633146109b6576001546001600160a01b03166109c3565b6002546001600160a01b03165b33600090815260086020526040812054919250906109e990889088908890889088611a36565b6109fd576109f6826119b7565b5050610c27565b60005b86518160ff161015610b5657604060ff16848260ff1681518110610a2657610a266125d4565b602002602001015160ff1610610a4757610a3f836119b7565b505050610c27565b6001600160a01b0383166000908152600b602052604081208551909190869060ff8516908110610a7957610a796125d4565b60209081029190910181015160ff908116835290820192909252604001600020541615610aa857610aa86125ea565b6001600160a01b0383166000908152600b60205260408120855160019290879060ff8616908110610adb57610adb6125d4565b602002602001015160ff1660ff16815260200190815260200160002060006101000a81548160ff021916908315150217905550868160ff1681518110610b2357610b236125d4565b602002602001015115156001151503610b445781610b4081612600565b9250505b80610b4e81612600565b915050610a00565b5060005b604060ff82161015610bb1576001600160a01b0383166000908152600b6020908152604080832060ff808616855292528220541615159003610b9f57610a3f836119b7565b80610ba981612600565b915050610b5a565b5033600090815260096020526040902054600590610bd29060ff168361261f565b60ff1603610be857610be3336119b7565b610bf1565b610bf1826119b7565b6040513381527ff75ce363b7d34c49eabae19c9aa866af229df0c4477c6cf8957e26c72e70b2fd9060200160405180910390a150505b5050505050565b6001546001600160a01b0316331480610c5157506002546001600160a01b031633145b610c5a57600080fd5b3360009081526005602052604090205460ff161515600103610ccc57600d54431015610c9c57336000908152600560205260409020805460ff19169055610ccc565b600d544310610ccc5760015461094c906001600160a01b0316331461093b576001546001600160a01b03166119b7565b604060ff861610610cdc57600080fd5b604060ff821610610cec57600080fd5b6003600e5460ff166005811115610d0557610d05612127565b14610d0f57600080fd5b6001546000906001600160a01b03163314610d35576001546001600160a01b0316610d42565b6002546001600160a01b03165b6001600160a01b0381166000908152600a602052604081205491925090610d6b90600190612638565b6001600160a01b0383166000908152600a60205260409020805491925060ff89169183908110610d9d57610d9d6125d4565b60009182526020909120015460ff1614610db657600080fd5b60026001600160a01b0383166000908152600a60205260409020805483908110610de257610de26125d4565b600091825260209091200154610100900460ff166002811115610e0757610e07612127565b14610e1457610e146125ea565b33600090815260086020526040902054610e34908690889087908b611b38565b610e4e57600e805460ff191660041790556109f6826119b7565b841515600103610f7c576001600160a01b0382166000908152600a6020526040902080546001919083908110610e8657610e866125d4565b6000918252602090912001805461ff001916610100836002811115610ead57610ead612127565b0217905550336000908152600960205260408120805460ff1691610ed083612600565b82546101009290920a60ff8181021990931691831602179091553360009081526009602052604090205416600419019050610f77576040516001600160a01b03831681527f745c90b656b4aafe296c8ca35aeacfe56cb96c90e1d320e5da643fff1051b6c09060200160405180910390a1600380546001600160a01b0319166001600160a01b038416179055600e80546004919060ff191660018302179055505050610c27565b610fd3565b6001600160a01b0382166000908152600a60205260408120805483908110610fa657610fa66125d4565b6000918252602090912001805461ff001916610100836002811115610fcd57610fcd612127565b02179055505b610fdc83611b5e565b50505050505050565b6001546001600160a01b031633148061100857506002546001600160a01b031633145b61101157600080fd5b3360009081526005602052604090205460ff16151560010361108357600d5443101561105357336000908152600560205260409020805460ff19169055611083565b600d5443106110835760015461089a906001600160a01b0316331461093b576001546001600160a01b03166119b7565b61089a81611b5e565b6001546001600160a01b03163314806110af57506002546001600160a01b031633145b6110b857600080fd5b600081116110c557600080fd5b6001600e5460ff1660058111156110de576110de612127565b146110e857600080fd5b3360008181526006602052604090819020839055517fc07a33c2acb1082db57f6183c4dc209f6510b7677e03bbdc62a84cb8e5f243109061112c9084815260200190565b60405180910390a250565b6001546001600160a01b031633148061115a57506002546001600160a01b031633145b61116357600080fd5b6000811161117057600080fd5b6001600e5460ff16600581111561118957611189612127565b1461119357600080fd5b6001546001600160a01b0316331480156111c657506002546001600160a01b031660009081526006602052604090205481145b806111ff57506002546001600160a01b0316331480156111ff57506001546001600160a01b031660009081526006602052604090205481145b61126a5760405162461bcd60e51b815260206004820152603160248201527f416d6f756e7420696e76616c6964206f7220646f6573206e6f74206d6174636860448201527020776974682074686520706c617965727360781b60648201526084015b60405180910390fd5b600c8190556002546001546040518381526001600160a01b0392831692909116907fd4713f36557ee5ee0e77fc1ae1384e78c9e14adf49e0a17258ffc2d575b4464a9060200160405180910390a350565b6002546001600160a01b0316156112d157600080fd5b600280546001600160a01b0319166001600160a01b038316179055600e80546001919060ff19168280021790555050565b6001546001600160a01b031633148061132557506002546001600160a01b031633145b61132e57600080fd5b6001546000906001600160a01b03163314611354576001546001600160a01b0316611361565b6002546001600160a01b03165b90506001600e5460ff16600581111561137c5761137c612127565b1480156113a257506001600160a01b03811660009081526007602052604090205460ff16155b806113e457506002600e5460ff1660058111156113c1576113c1612127565b1480156113e457506001600160a01b038116600090815260086020526040902054155b8061141d57506003600e5460ff16600581111561140357611403612127565b14801561141d57506004546001600160a01b038281169116145b8061145657506004600e5460ff16600581111561143c5761143c612127565b14801561145657506003546001600160a01b038281169116145b61145f57600080fd5b6001600160a01b03811660009081526005602052604090205460ff161515600114801561148e5750600d544310155b156114a957600e805460ff1916600417905561089a336119b7565b6001600160a01b038116600081815260056020908152604091829020805460ff1916905590519182527f4b0373bd749099a33fd3689e6e070b2b02ed715e06fa39ef34746d62d123c28291015b60405180910390a150565b6001546001600160a01b031633148061152457506002546001600160a01b031633145b61152d57600080fd5b3360009081526005602052604090205460ff1615156001036115a157600d5443101561156f57336000908152600560205260409020805460ff191690556115a1565b600d5443106115a15760015461159f906001600160a01b0316331461093b576001546001600160a01b03166119b7565b565b6001600e5460ff1660058111156115ba576115ba612127565b146115c457600080fd5b3360009081526007602052604090205460ff161580156115e55750600c5434145b6116315760405162461bcd60e51b815260206004820152601e60248201527f54686520626574206d75737420626520746865206f6e652061677265656400006044820152606401611261565b33600090815260076020526040808220805460ff1916600190811790915580546001600160a01b0316835291205460ff16151514801561169057506002546001600160a01b031660009081526007602052604090205460ff1615156001145b1561159f576002546001546040516001600160a01b0392831692909116907f92bfcd18f1448a842bd541df9281b12796165d85f71ccd485e08452b56a86f2a90600090a3600e805460ff19166002179055565b6001546001600160a01b031633148061170657506002546001600160a01b031633145b61170f57600080fd5b3360009081526005602052604090205460ff16151560010361178157600d5443101561175157336000908152600560205260409020805460ff19169055611781565b600d5443106117815760015461089a906001600160a01b0316331461093b576001546001600160a01b03166119b7565b6002600e5460ff16600581111561179a5761179a612127565b1480156117b4575033600090815260086020526040902054155b6118005760405162461bcd60e51b815260206004820152601f60248201527f596f7520616c726561647920636f6d6d69747465642074686520626f617264006044820152606401611261565b336000908152600860205260408082208390556001546001600160a01b031682529020541580159061184b57506002546001600160a01b031660009081526008602052604090205415155b1561198157600e805460ff191660031790556002546001546040516001600160a01b0392831692909116907f19c9b8b27a42abae5357200773bac7d28309a9888c9c2886334576a3df46e7af90600090a3600154600280546040516bffffffffffffffffffffffff19606094851b811660208301529190931b1660348301526000916048016040516020818303038152906040528051906020012060001c6118f3919061264b565b90508060000361192457600154600480546001600160a01b0319166001600160a01b03909216919091179055611947565b600254600480546001600160a01b0319166001600160a01b039092169190911790555b50600180546001600160a01b03908116600090815260096020526040808220805460ff199081169091559354909216815220805490911690555b60408051338152602081018390527f2003c3135cf081b8c5d61784ab6beb51baf2e42f061a348a3f98e5b386f6a69391016114f6565b6004600e5460ff1660058111156119d0576119d0612127565b146119da57600080fd5b600380546001600160a01b0383166001600160a01b03199091168117909155600e805460ff191660051790556040519081527fe48a335438ec9cf1059d7b134553ca861398a18d023bd34b9e4d956f5f7ba004906020016114f6565b600080865167ffffffffffffffff811115611a5357611a53612282565b604051908082528060200260200182016040528015611a7c578160200160208202803683370190505b50905060005b87518160ff161015611b1f57611aed888260ff1681518110611aa657611aa66125d4565b6020026020010151888360ff1681518110611ac357611ac36125d4565b6020026020010151868460ff1681518110611ae057611ae06125d4565b6020026020010151611d80565b828260ff1681518110611b0257611b026125d4565b602090810291909101015280611b1781612600565b915050611a82565b50611b2c88868684611dde565b98975050505050505050565b600080611b46878785611d80565b9050611b53858583611df6565b979650505050505050565b6001546001600160a01b0316331480611b8157506002546001600160a01b031633145b611b8a57600080fd5b604060ff821610611bcc5760405162461bcd60e51b815260206004820152600c60248201526b125b9d985b1a590810d95b1b60a21b6044820152606401611261565b336000908152600b6020908152604080832060ff80861685529252909120541615611c395760405162461bcd60e51b815260206004820152601c60248201527f596f7520616c72656164792073656c65637420746869732063656c6c000000006044820152606401611261565b6003600e5460ff166005811115611c5257611c52612127565b14611c5c57600080fd5b336000818152600b6020908152604080832060ff8616808552908352818420805460ff19166001179055938352600a82529182902082518084019093529282528101600290528154600181018355600092835260209283902082519101805460ff19811660ff9093169283178255938301519293909291839161ffff191617610100836002811115611cf057611cf0612127565b0217905550506001546001600160a01b031633149050611d1b576001546001600160a01b0316611d28565b6002546001600160a01b03165b600480546001600160a01b0319166001600160a01b03929092169190911790556040805133815260ff831660208201527f665e09da1c684bb4ada2b5c04fe0bb20328ca455aae1928734e0a40dcf0e099e91016114f6565b60408051841515602082015290810183905260ff8216606082015260009060800160408051601f19818403018152828252805160209182012090830152016040516020818303038152906040528051906020012090505b9392505050565b600082611dec868685611e0c565b1495945050505050565b600082611e0385846120ac565b14949350505050565b8051835183516000929190806001611e2484866125c1565b611e2e9190612638565b14611e7b5760405162461bcd60e51b815260206004820152601f60248201527f4d65726b6c6550726f6f663a20696e76616c6964206d756c746970726f6f66006044820152606401611261565b60008167ffffffffffffffff811115611e9657611e96612282565b604051908082528060200260200182016040528015611ebf578160200160208202803683370190505b5090506000806000805b85811015611fff576000888510611f04578584611ee58161266d565b955081518110611ef757611ef76125d4565b6020026020010151611f2a565b8a85611f0f8161266d565b965081518110611f2157611f216125d4565b60200260200101515b905060008c8381518110611f4057611f406125d4565b6020026020010151611f76578d84611f578161266d565b955081518110611f6957611f696125d4565b6020026020010151611fc0565b898610611f9a578685611f888161266d565b965081518110611f6957611f696125d4565b8b86611fa58161266d565b975081518110611fb757611fb76125d4565b60200260200101515b9050611fcc82826120fb565b878481518110611fde57611fde6125d4565b60200260200101818152505050508080611ff79061266d565b915050611ec9565b508415612080578581146120555760405162461bcd60e51b815260206004820152601f60248201527f4d65726b6c6550726f6f663a20696e76616c6964206d756c746970726f6f66006044820152606401611261565b83600186038151811061206a5761206a6125d4565b6020026020010151975050505050505050611dd7565b8615612099578860008151811061206a5761206a6125d4565b8a60008151811061206a5761206a6125d4565b600081815b84518110156120f1576120dd828683815181106120d0576120d06125d4565b60200260200101516120fb565b9150806120e98161266d565b9150506120b1565b5090505b92915050565b6000818310612117576000828152602084905260409020611dd7565b5060009182526020526040902090565b634e487b7160e01b600052602160045260246000fd5b602081016006831061215157612151612127565b91905290565b80356001600160a01b038116811461216e57600080fd5b919050565b60006020828403121561218557600080fd5b611dd782612157565b803560ff8116811461216e57600080fd5b600080604083850312156121b257600080fd5b6121bb83612157565b91506121c96020840161218e565b90509250929050565b600080604083850312156121e557600080fd5b6121ee83612157565b946020939093013593505050565b6003811061220c5761220c612127565b9052565b60ff8316815260408101611dd760208301846121fc565b602080825282518282018190526000919060409081850190868401855b82811015612275578151805160ff168552860151612264878601826121fc565b509284019290850190600101612244565b5091979650505050505050565b634e487b7160e01b600052604160045260246000fd5b604051601f8201601f1916810167ffffffffffffffff811182821017156122c1576122c1612282565b604052919050565b600067ffffffffffffffff8211156122e3576122e3612282565b5060051b60200190565b600082601f8301126122fe57600080fd5b8135602061231361230e836122c9565b612298565b82815260059290921b8401810191818101908684111561233257600080fd5b8286015b8481101561234d5780358352918301918301612336565b509695505050505050565b8035801515811461216e57600080fd5b600082601f83011261237957600080fd5b8135602061238961230e836122c9565b82815260059290921b840181019181810190868411156123a857600080fd5b8286015b8481101561234d576123bd81612358565b83529183019183016123ac565b600082601f8301126123db57600080fd5b813560206123eb61230e836122c9565b82815260059290921b8401810191818101908684111561240a57600080fd5b8286015b8481101561234d5761241f8161218e565b835291830191830161240e565b600080600080600060a0868803121561244457600080fd5b853567ffffffffffffffff8082111561245c57600080fd5b61246889838a016122ed565b9650602088013591508082111561247e57600080fd5b61248a89838a01612368565b955060408801359150808211156124a057600080fd5b6124ac89838a016122ed565b945060608801359150808211156124c257600080fd5b6124ce89838a01612368565b935060808801359150808211156124e457600080fd5b506124f1888289016123ca565b9150509295509295909350565b600080600080600060a0868803121561251657600080fd5b61251f8661218e565b94506020860135935061253460408701612358565b9250606086013567ffffffffffffffff81111561255057600080fd5b61255c888289016122ed565b92505061256b6080870161218e565b90509295509295909350565b60006020828403121561258957600080fd5b611dd78261218e565b6000602082840312156125a457600080fd5b5035919050565b634e487b7160e01b600052601160045260246000fd5b808201808211156120f5576120f56125ab565b634e487b7160e01b600052603260045260246000fd5b634e487b7160e01b600052600160045260246000fd5b600060ff821660ff8103612616576126166125ab565b60010192915050565b60ff81811683821601908111156120f5576120f56125ab565b818103818111156120f5576120f56125ab565b60008261266857634e487b7160e01b600052601260045260246000fd5b500690565b60006001820161267f5761267f6125ab565b506001019056fea2646970667358221220898602e378d1c993bb6f323aff602cefce8a0e1d035247b4fca090921ad40be464736f6c63430008130033a264697066735822122048ffa8af7e078bb52569f41d1b7bd4ed7d0d92d8a0d24522127120b47e079f6c64736f6c63430008130033",
  "immutableReferences": {},
  "source": "// SPDX-License-Identifier: MIT\r\npragma solidity >=0.4.22 <0.9.0;\r\nimport \"./Game.sol\";\r\nimport \"@openzeppelin/contracts/utils/cryptography/MerkleProof.sol\";\r\n\r\ncontract GamesManager{\r\n\r\n    Game[] private joinableGames;\r\n    //mapping the list of joinable games into an array of indexes used to refer to a specific game\r\n    mapping(Game => uint256) joinableGamesIndexes;\r\n    //false = NOT joinable; true = joinable\r\n    mapping(Game => bool) joinableGamesStatus;\r\n    //Nonce used for pseudo-random generator of game ID\r\n    uint256 private nonce;\r\n\r\n    event GameCreated(address indexed owner, Game _game);\r\n\r\n    event JoinedGame(address indexed player, Game _game);\r\n\r\n    event NoGameAvailable(address indexed player);\r\n\r\n    event NoValidGame(address indexed player);\r\n    \r\n\r\n    function CreateGame() external{\r\n        //emit Start(msg.sender);\r\n        Game battleshipGame = new Game(msg.sender);\r\n        //emit Reach(msg.sender);\r\n        _addGame(battleshipGame);\r\n        emit GameCreated(msg.sender, battleshipGame);\r\n    }\r\n\r\n    function JoinGameID(Game _ID) external{\r\n        //The game must be in the list of joinable games and the player who joins must not be the owner of the game\r\n        if(!joinableGamesStatus[_ID] || _ID.owner() == msg.sender){\r\n            emit NoValidGame(msg.sender);\r\n            return;\r\n        }\r\n        //Player 1 is always the owner\r\n        _ID.RegisterSecondPlayer(msg.sender);\r\n\r\n        RemoveGame(_ID);\r\n\r\n        emit JoinedGame(msg.sender, _ID);\r\n    }\r\n\r\n    function JoinGameRandom() external{\r\n        //Generate a random index to access joinable games list by using the blockhash of the previous block,\r\n        //the address of the caller and a local nonce which is incremented each time the function is called\r\n        if(joinableGames.length < 1){\r\n            emit NoGameAvailable(msg.sender);\r\n            return;\r\n        }\r\n        uint256 random = uint256(keccak256(abi.encodePacked(blockhash(block.number -1), msg.sender, nonce))) % joinableGames.length; \r\n        nonce++;\r\n\r\n        bool found = false;\r\n        for(uint256 i = random; i < joinableGames.length; i++){\r\n            Game _game = joinableGames[(i % joinableGames.length)];\r\n\r\n            if(_game.owner() != msg.sender){\r\n                found = true;\r\n                _game.RegisterSecondPlayer(msg.sender);\r\n                RemoveGame(_game);\r\n                emit JoinedGame(msg.sender, _game);\r\n                break;\r\n            }\r\n\r\n        }\r\n        if(!found){\r\n            emit NoGameAvailable(msg.sender);\r\n        }\r\n    }\r\n\r\n    function RemoveGame(Game _ID) internal{\r\n        assert(joinableGamesStatus[_ID] == true);\r\n        delete(joinableGamesStatus[_ID]);\r\n\r\n        uint256 index = joinableGamesIndexes[_ID];\r\n\r\n        //If the game is the last one in the list or the list is filled with just one element then you just need to pop it out\r\n        if(index == joinableGames.length -1 || joinableGames.length == 1){\r\n            joinableGames.pop();\r\n        }else{\r\n            //The game is in the middle of the list so you need first to make it the last element of the list\r\n            joinableGames[index] = joinableGames[joinableGames.length -1];\r\n            //Then you just pop it out\r\n            joinableGames.pop();\r\n            joinableGamesIndexes[joinableGames[index]] = index;\r\n        }\r\n\r\n        delete joinableGamesIndexes[_ID];\r\n    }\r\n    function _addGame(Game _ID) internal{\r\n        //Add the game in the list of joinable games and set its status to joinable (true)\r\n        joinableGamesStatus[_ID] = true;\r\n        joinableGames.push(_ID);\r\n        joinableGamesIndexes[_ID] = joinableGames.length -1;\r\n    }\r\n}",
  "sourcePath": "C:\\Users\\39349\\Documents\\Peer-to-Peer systems and Blockchains\\BattleshipProject\\contracts\\GamesManager.sol",
  "compiler": {
    "name": "solc",
    "version": "0.8.19+commit.7dd6d404.Emscripten.clang"
  },
  "schemaVersion": "3.4.16",
  "updatedAt": "2024-02-01T13:23:34.937Z",
  "networkType": "ethereum",
  "devdoc": {
    "kind": "dev",
    "methods": {},
    "version": 1
  },
  "userdoc": {
    "kind": "user",
    "methods": {},
    "version": 1
  }
}